S010000050726F6A656374332E737265630A
S11300000C942A000C9447000C9447000C9447006D
S11300100C9447000C9447000C9447000C94470040
S11300200C9447000C9447000C9447000C94470030
S11300300C9447000C9447000C9447000C94470020
S11300400C9447000C9447000C9447000C94470010
S11300500C94470011241FBECFE5D8E0DEBFCDBF0E
S113006010E0A0E6B0E0E4EEF5E002C005900D92E9
S1130070A036B107D9F720E0A0E6B0E001C01D9298
S1130080A036B207E1F70E941D010C94F0020C9413
S113009000009C0183E083BF83E808C082BF98B757
S11300A0916098BFA89508B600FEFDCF2150310994
S11300B0A8F713BE08959C0183E083BF8EEF08C0A8
S11300C082BF98B7916098BFA89508B600FEFDCF8F
S11300D021503109A8F713BE0895662311F0C09A80
S11300E001C0C098C19882BB8FEF81BBC29A000047
S11300F000000000C2980895C098C19A11BA90B344
S1130100C29A00000000000011BA90B3C29899236B
S11301109CF30E946D000895B89AB99ABA9A80E146
S113012090E00E94490060E080E30E946D0085E059
S113013090E00E94490060E080E30E946D0081E04D
S113014090E00E94490060E08CE30E947C0060E043
S11301508CE00E947C0060E086E00E947C0060E00D
S113016081E00E947C00089560E081E00E947C00B0
S11301700895D09AD8980E948C000E94B400D09A16
S113018081E090E008958F929F92AF92BF92CF92B8
S1130190DF92EF92FF920F931F93CF93DF936B0144
S11301A07C01072E000C880B990B0E94F7019B0120
S11301B0AC0160E070E080E89FE30E944D014B01D8
S11301C05C01B701FF0C880B990B0E94F701A50194
S11301D094010E944D010E94BF017B0120E030E0A8
S11301E040E05FE3C501B4010E94830220E030E5F2
S11301F043EC57E40E9483020E94BF018B011E144A
S11302001F0474F4C0E0D0E0D89AC8010E945B00D7
S1130210D898C8010E945B002196EC16FD06A1F750
S1130220DF91CF911F910F91FF90EF90DF90CF90CE
S1130230BF90AF909F908F9008950F2EF8EB4F2EA4
S113024055245394F6E96F2E712CF02D0F2EF2EDF8
S11302508F2E99249394F6E9AF2EB12CF02D0F2E06
S1130260FDEECF2EDD24D394F6E9EF2EF12CF02D04
S11302700E94B900C301B2010E94C300C501B401C8
S11302800E94C300C701B6010E94C30068E572E082
S113029086E990E00E94C300EDCF0E9461010C94B6
S11302A049020E94420258F00E943B0240F029F4A5
S11302B05F3F29F00C94320251110C947D020C948E
S11302C038020E945A0268F39923B1F3552391F33B
S11302D0951B550BBB27AA2762177307840738F0B1
S11302E09F5F5F4F220F331F441FAA1FA9F335D00E
S11302F00E2E3AF0E0E832D091505040E695001CC2
S1130300CAF72BD0FE2F29D0660F771F881FBB1F7B
S1130310261737074807AB07B0E809F0BB0B802D59
S1130320BF01FF2793585F4F3AF09E3F510578F085
S11303300C9432020C947D025F3FE4F3983ED4F3B4
S1130340869577956795B795F7959F5FC9F7880F59
S1130350911D9695879597F90895E1E0660F771FAB
S1130360881FBB1F621773078407BA0720F0621B3C
S1130370730B840BBA0BEE1F88F7E09508950E9467
S1130380C6016894B1110C947D0208950E94620222
S113039088F09F5798F0B92F9927B751B0F0E1F042
S11303A0660F771F881F991F1AF0BA95C9F714C0F2
S11303B0B13091F00E947C02B1E008950C947C026B
S11303C0672F782F8827B85F39F0B93FCCF386952B
S11303D077956795B395D9F73EF490958095709588
S11303E061957F4F8F4F9F4F0895E89409C097FB05
S11303F03EF490958095709561957F4F8F4F9F4FF8
S11304009923A9F0F92F96E9BB279395F69587953B
S113041077956795B795F111F8CFFAF4BB0F11F4FE
S113042060FF1BC06F5F7F4F8F4F9F4F16C08823A5
S113043011F096E911C0772321F09EE8872F762FDB
S113044005C0662371F096E8862F70E060E02AF01C
S11304509A95660F771F881FDAF7880F9695879508
S113046097F9089597F99F6780E870E060E0089530
S11304709FEF80EC089500240A94161617061806B8
S11304800906089500240A94121613061406050694
S11304900895092E0394000C11F4882352F0BB0F25
S11304A040F4BF2B11F460FF04C06F5F7F4F8F4F88
S11304B09F4F089557FD9058440F551F59F05F3FC3
S11304C071F04795880F97FB991F61F09F3F79F072
S11304D087950895121613061406551FF2CF4695F4
S11304E0F1DF08C0161617061806991FF1CF869576
S11304F07105610508940895E894BB27662777275A
S1130500CB0197F908950E9496020C9449020E9427
S11305103B0238F00E94420220F0952311F00C9423
S113052032020C94380211240C947D020E945A0267
S113053070F3959FC1F3950F50E0551F629FF00132
S1130540729FBB27F00DB11D639FAA27F00DB11D4B
S1130550AA1F649F6627B00DA11D661F829F2227D4
S1130560B00DA11D621F739FB00DA11D621F839F5B
S1130570A00D611D221F749F3327A00D611D231F31
S1130580849F600D211D822F762F6A2F11249F577F
S113059050409AF0F1F088234AF0EE0FFF1FBB1F82
S11305A0661F771F881F91505040A9F79E3F510541
S11305B080F00C9432020C947D025F3FE4F3983E89
S11305C0D4F3869577956795B795F795E7959F5FEB
S11305D0C1F7FE2B880F911D9695879597F908957D
S10705E0F894FFCFB9
S9030000FC
