S010000050726F6A656374332E737265630A
S11300000C942A000C9447000C9447000C9447006D
S11300100C9447000C9447000C9447000C94470040
S11300200C9447000C9447000C9447000C94470030
S11300300C9447000C9447000C9447000C94470020
S11300400C9447000C9447000C9447000C94470010
S11300500C94470011241FBECFE5D8E0DEBFCDBF0E
S113006010E0A0E6B0E0EAE1F2E002C005900D92F3
S1130070A036B107D9F720E0A0E6B0E001C01D9298
S1130080A036B207E1F70E94D2000C940B010C9445
S113009000009C0183E083BF83E808C082BF98B757
S11300A0916098BFA89508B600FEFDCF2150310994
S11300B0A8F713BE0895662311F0C09A01C0C09832
S11300C0C19882BB8FEF81BBC29A00000000000080
S11300D0C2980895C098C19A11BA90B3C29A000008
S11300E00000000011BA90B3C29899239CF30E94B7
S11300F05B000895B89AB99ABA9A80E190E00E9498
S1130100490060E080E30E945B0085E090E00E948B
S1130110490060E080E30E945B0081E090E00E947F
S1130120490060E08CE30E946A0060E08CE00E9479
S11301306A0060E086E00E946A0060E081E00E945C
S11301406A00089560E081E00E946A000895D09AF0
S1130150D8980E947A000E94A200D09A81E090E090
S11301600895CF93DF93AC019B0181E090E0BA0145
S11301700E94E300C9010E94E300EB011C161D0666
S113018074F4D89A81E090E00E944900D89881E004
S113019090E00E94490021961C161D0694F3DF91FD
S11301A0CF9108950E94A70085E090E00E94490045
S11301B062E070E084E690E00E94B10085E090E0A7
S11301C00E944900F1CF97FB072E16F4009407D044
S11301D077FD09D00E94F70007FC05D03EF4909506
S11301E081959F4F0895709561957F4F0895AA1B3F
S11301F0BB1B51E107C0AA1FBB1FA617B70710F00E
S1130200A61BB70B881F991F5A95A9F7809590953F
S10D0210BC01CD010895F894FFCF5E
S9030000FC
