S010000050726F6A656374332E737265630A
S11300000C942A000C9447000C9447000C9447006D
S11300100C9447000C9447000C9447000C94470040
S11300200C9447000C9447000C9447000C94470030
S11300300C9447000C9447000C9447000C94470020
S11300400C9447000C9447000C9447000C94470010
S11300500C94470011241FBECFE5D8E0DEBFCDBF0E
S113006010E0A0E6B0E0E8E6F6E002C005900D92EC
S1130070AC39B107D9F720E0ACE9B0E001C01D927A
S1130080A43EB207E1F70E947C010C9432030C9465
S113009000009C0183E083BF83E808C082BF98B757
S11300A0916098BFA89508B600FEFDCF2150310994
S11300B0A8F713BE08959C0183E083BF8EEF08C0A8
S11300C082BF98B7916098BFA89508B600FEFDCF8F
S11300D021503109A8F713BE0895662311F0C09A80
S11300E001C0C098C19882BB8FEF81BBC29A000047
S11300F000000000C2980895C098C19A11BA90B344
S1130100C29A00000000000011BA90B3C29899236B
S11301109CF30E946D000895B89AB99ABA9A80E146
S113012090E00E94490060E080E30E946D0085E059
S113013090E00E94490060E080E30E946D0081E04D
S113014090E00E94490060E08CE30E947C0060E043
S11301508CE00E947C0060E086E00E947C0060E00D
S113016081E00E947C00089560E081E00E947C00B0
S11301700895D09AD8980E948C000E94B400D09A16
S113018081E090E00895D8980E9449000895ECE930
S1130190F0E045E051E0849F9001859F300D949FED
S11301A0300D11243183208328EC30E03383228303
S11301B065E271E0869FA001879F500D969F500DC8
S11301C0112455834483378326836AE471E0869F30
S11301D0A001879F500D969F500D11245187408791
S11301E0338722876DE571E0869FA001879F500DBC
S11301F0969F500D1124558744873787268768E8D2
S113020071E0869FA001879F500D969F500D112489
S1130210518B408B338B228B81E090E0958B848BC8
S1130220378B268B0895EF92FF920F931F93CF93F2
S1130230DF937C01072E000C880B990B0E94390276
S11302409B01AC0160E070E080E89FE30E948F01B5
S113025020E030E040E05FE30E94C50220E030E5AA
S113026043EC57E40E94C5020E9401028B011E1454
S11302701F0474F4C0E0D0E0D89AC8010E945B0067
S1130280D898C8010E945B002196EC16FD06A1F7E0
S1130290DF91CF911F910F91FF90EF9008950F93ED
S11302A01F93CF93DF93161617060CF58C01EC0100
S11302B0660F771F060F171F299139912F3F8FEF74
S11302C0380729F484EF91E00E94C3000DC0220F87
S11302D0331F220F331FF901E456FF4F60817181F0
S11302E0828193810E941301C017D10729F7DF91FE
S11302F0CF911F910F9108950E94B90082E090E080
S11303000E94C70060919A0070919B0080E690E083
S11303100E944F0186E990E00E94C300F3CF0E943F
S1130320A3010C948B020E94840258F00E947D0267
S113033040F029F45F3F29F00C94740251110C949D
S1130340BF020C947A020E949C0268F39923B1F3D1
S1130350552391F3951B550BBB27AA2762177307E7
S1130360840738F09F5F5F4F220F331F441FAA1F7B
S1130370A9F335D00E2E3AF0E0E832D09150504037
S1130380E695001CCAF72BD0FE2F29D0660F771FE5
S1130390881FBB1F261737074807AB07B0E809F0CB
S11303A0BB0B802DBF01FF2793585F4F3AF09E3F50
S11303B0510578F00C9474020C94BF025F3FE4F38F
S11303C0983ED4F3869577956795B795F7959F5F93
S11303D0C9F7880F911D9695879597F90895E1E0DF
S11303E0660F771F881FBB1F621773078407BA073E
S11303F020F0621B730B840BBA0BEE1F88F7E09599
S113040008950E9408026894B1110C94BF020895E3
S11304100E94A40288F09F5798F0B92F9927B751EA
S1130420B0F0E1F0660F771F881F991F1AF0BA9594
S1130430C9F714C0B13091F00E94BE02B1E0089532
S11304400C94BE02672F782F8827B85F39F0B93F24
S1130450CCF3869577956795B395D9F73EF4909547
S11304608095709561957F4F8F4F9F4F0895E894C5
S113047009C097FB3EF490958095709561957F4FE8
S11304808F4F9F4F9923A9F0F92F96E9BB27939596
S1130490F695879577956795B795F111F8CFFAF4A6
S11304A0BB0F11F460FF1BC06F5F7F4F8F4F9F4FD7
S11304B016C0882311F096E911C0772321F09EE835
S11304C0872F762F05C0662371F096E8862F70E09B
S11304D060E02AF09A95660F771F881FDAF7880F75
S11304E09695879597F9089597F99F6780E870E046
S11304F060E008959FEF80EC089500240A94161696
S1130500170618060906089500240A9412161306FD
S1130510140605060895092E0394000C11F488238B
S113052052F0BB0F40F4BF2B11F460FF04C06F5FA7
S11305307F4F8F4F9F4F089557FD9058440F551F7D
S113054059F05F3F71F04795880F97FB991F61F051
S11305509F3F79F087950895121613061406551FC8
S1130560F2CF4695F1DF08C0161617061806991F34
S1130570F1CF86957105610508940895E894BB2729
S113058066277727CB0197F908950E94D8020C9427
S11305908B020E947D0238F00E94840220F0952391
S11305A011F00C9474020C947A0211240C94BF027E
S11305B00E949C0270F3959FC1F3950F50E0551F64
S11305C0629FF001729FBB27F00DB11D639FAA27A4
S11305D0F00DB11DAA1F649F6627B00DA11D661FF3
S11305E0829F2227B00DA11D621F739FB00DA11D14
S11305F0621F839FA00D611D221F749F3327A00DCE
S1130600611D231F849F600D211D822F762F6A2F69
S113061011249F5750409AF0F1F088234AF0EE0FCE
S1130620FF1FBB1F661F771F881F91505040A9F7FB
S11306309E3F510580F00C9474020C94BF025F3FFE
S1130640E4F3983ED4F3869577956795B795F79537
S1130650E7959F5FC1F7FE2B880F911D96958795AF
S10B066097F90895F894FFCF07
S1130668020002000200FFFF020002000200FFFF76
S113067802000400000001000200FFFF0300030061
S1130688030003000300020002000200020002004B
S10F0698010001000200010004001B002E
S9030000FC
