S010000050726F6A656374332E737265630A
S11300000C942A000C9447000C9447000C9447006D
S11300100C9447000C9447000C9447000C94470040
S11300200C9447000C9447000C9447000C94470030
S11300300C9447000C9447000C9447000C94470020
S11300400C9447000C9447000C9447000C94470010
S11300500C94470011241FBECFE5D8E0DEBFCDBF0E
S113006010E0A0E6B0E0E8E6F5E002C005900D92ED
S1130070A036B107D9F720E0A0E6B0E001C01D9298
S1130080A036B207E1F70E9407010C94B2020C9467
S113009000009C0183E083BF83E808C082BF98B757
S11300A0916098BFA89508B600FEFDCF2150310994
S11300B0A8F713BE0895662311F0C09A01C0C09832
S11300C0C19882BB8FEF81BBC29A00000000000080
S11300D0C2980895C098C19A11BA90B3C29A000008
S11300E00000000011BA90B3C29899239CF30E94B7
S11300F05B000895B89AB99ABA9A80E190E00E9498
S1130100490060E080E30E945B0085E090E00E948B
S1130110490060E080E30E945B0081E090E00E947F
S1130120490060E08CE30E946A0060E08CE00E9479
S11301306A0060E086E00E946A0060E081E00E945C
S11301406A00089560E081E00E946A000895CF93F8
S1130150C62F98E2899FC00D112460E082E00E94BE
S11301606A00CC2331F060E084E10E946A00C1504F
S1130170D1F7CF91089561E00E946A000895D09A62
S1130180D8980E947A000E94A200D09A81E090E060
S113019008958B01BC01990F880B990B0E94B9013A
S11301A09B01AC0160E070E080E89FE30E940F01D6
S11301B06B017C0120E030E040E05FE30E944502F7
S11301C020E030E04AE754E40E9445020E948101A5
S11301D0EB01B801110F880B990B0E94B901A7011B
S11301E096010E940F010E948101672B39F460E09F
S11301F080E00E94A70081E60E94BB00D89ACE014D
S11302000E944900D898CE010E944900F7CF0E946D
S1130210BF006BEB7FE788EB91E00E94C9000E946E
S113022023010C940B020E94040258F00E94FD0169
S113023040F029F45F3F29F00C94F40151110C941F
S11302403F020C94FA010E941C0268F39923B1F353
S1130250552391F3951B550BBB27AA2762177307E8
S1130260840738F09F5F5F4F220F331F441FAA1F7C
S1130270A9F335D00E2E3AF0E0E832D09150504038
S1130280E695001CCAF72BD0FE2F29D0660F771FE6
S1130290881FBB1F261737074807AB07B0E809F0CC
S11302A0BB0B802DBF01FF2793585F4F3AF09E3F51
S11302B0510578F00C94F4010C943F025F3FE4F391
S11302C0983ED4F3869577956795B795F7959F5F94
S11302D0C9F7880F911D9695879597F90895E1E0E0
S11302E0660F771F881FBB1F621773078407BA073F
S11302F020F0621B730B840BBA0BEE1F88F7E0959A
S113030008950E9488016894B1110C943F020895E5
S11303100E94240288F09F5798F0B92F9927B7516B
S1130320B0F0E1F0660F771F881F991F1AF0BA9595
S1130330C9F714C0B13091F00E943E02B1E00895B3
S11303400C943E02672F782F8827B85F39F0B93FA5
S1130350CCF3869577956795B395D9F73EF4909548
S11303608095709561957F4F8F4F9F4F0895E894C6
S113037009C097FB3EF490958095709561957F4FE9
S11303808F4F9F4F9923A9F0F92F96E9BB27939597
S1130390F695879577956795B795F111F8CFFAF4A7
S11303A0BB0F11F460FF1BC06F5F7F4F8F4F9F4FD8
S11303B016C0882311F096E911C0772321F09EE836
S11303C0872F762F05C0662371F096E8862F70E09C
S11303D060E02AF09A95660F771F881FDAF7880F76
S11303E09695879597F9089597F99F6780E870E047
S11303F060E008959FEF80EC089500240A94161697
S1130400170618060906089500240A9412161306FE
S1130410140605060895092E0394000C11F488238C
S113042052F0BB0F40F4BF2B11F460FF04C06F5FA8
S11304307F4F8F4F9F4F089557FD9058440F551F7E
S113044059F05F3F71F04795880F97FB991F61F052
S11304509F3F79F087950895121613061406551FC9
S1130460F2CF4695F1DF08C0161617061806991F35
S1130470F1CF86957105610508940895E894BB272A
S113048066277727CB0197F908950E9458020C94A8
S11304900B020E94FD0138F00E94040220F0952313
S11304A011F00C94F4010C94FA0111240C943F0201
S11304B00E941C0270F3959FC1F3950F50E0551FE5
S11304C0629FF001729FBB27F00DB11D639FAA27A5
S11304D0F00DB11DAA1F649F6627B00DA11D661FF4
S11304E0829F2227B00DA11D621F739FB00DA11D15
S11304F0621F839FA00D611D221F749F3327A00DCF
S1130500611D231F849F600D211D822F762F6A2F6A
S113051011249F5750409AF0F1F088234AF0EE0FCF
S1130520FF1FBB1F661F771F881F91505040A9F7FC
S11305309E3F510580F00C94F4010C943F025F3F00
S1130540E4F3983ED4F3869577956795B795F79538
S1130550E7959F5FC1F7FE2B880F911D96958795B0
S10B056097F90895F894FFCF08
S9030000FC
