:100000000C942A000C9447000C9447000C94470071
:100010000C9447000C9447000C9447000C94470044
:100020000C9447000C9447000C9447000C94470034
:100030000C9447000C9447000C9447000C94470024
:100040000C9447000C9447000C9447000C94470014
:100050000C94470011241FBECFE5D8E0DEBFCDBF12
:1000600010E0A0E6B0E0E0E0F8E002C005900D92FC
:10007000A23AB107D9F720E0A2EAB0E001C01D9290
:10008000AA3EB207E1F70E943C020C94FE030C94D6
:1000900000009C0183E083BF83E808C082BF98B75B
:1000A000916098BFA89508B600FEFDCF2150310998
:1000B000A8F713BE08959C0183E083BF8EEF08C0AC
:1000C00082BF98B7916098BFA89508B600FEFDCF93
:1000D00021503109A8F713BE0895662311F0C09A84
:1000E00001C0C098C19882BB8FEF81BBC29A00004B
:1000F00000000000C2980895C098C19A11BA90B348
:10010000C29A00000000000011BA90B3C29899236F
:100110009CF30E946D000895B89AB99ABA9A80E14A
:1001200090E00E94490060E080E30E946D0085E05D
:1001300090E00E94490060E080E30E946D0081E051
:1001400090E00E94490060E08CE30E947C0060E047
:100150008CE00E947C0060E086E00E947C0060E011
:1001600081E00E947C00089560E081E00E947C00B4
:10017000089514BA15BA95B321E030E0A901082E0C
:1001800002C0440F551F0A94E2F7492B45BB94B3B4
:1001900002C0220F331F6A95E2F7922B94BB95B3EE
:1001A0002095292325BB23B330E002C03595279540
:1001B0008A95E2F781E090E020FF02C080E090E0C5
:1001C00008950F931F93CF93DF9300E010E01AC0C0
:1001D000BE016C5F7F4FC8010E94B900009749F0D3
:1001E000000F111F000F111FC00FD11FCE0101966C
:1001F0000CC02196C430D10559F70F5F1F4F043052
:10020000110519F0C0E0D0E0E3CFDF91CF911F914D
:100210000F910895D8980E9449000895CF93DF93D5
:10022000E2EAF0E045E051E0849F9001859F300DC7
:10023000949F300D1124318320837383628345E2C0
:1002400051E0849F9001859F300D949F300D1124C3
:100250003583248377836683AAE4B1E08A9FA00173
:100260008B9F500D9A9F500D1124518740877387A3
:100270006287CDE5D1E08C9FD0018D9FB00D9C9F12
:10028000B00D1124B587A48777876687C8E8D1E0C9
:100290008C9FD0018D9FB00D9C9FB00D1124B18B10
:1002A000A08B738B628B518F408F738F628F358FD2
:1002B000248F778F668F81E090E0958B848B88EC1C
:1002C00090E0978B868BDF91CF91089560919E008F
:1002D00070919F008091A0009091A1000E940E015A
:1002E000D09AD8980E948C000E94B400D09A81E0E5
:1002F00090E00895EF92FF920F931F93CF93DF93B7
:100300007C01072E000C880B990B0E9405039B01B2
:10031000AC0160E070E080E89FE30E945B0220E0B7
:1003200030E040E05FE30E94910320E030E543ECE1
:1003300057E40E9491030E94CD028B011E141F04FA
:1003400074F4C0E0D0E0D89AC8010E945B00D8984D
:10035000C8010E945B002196EC16FD06A1F7DF9113
:10036000CF911F910F91FF90EF9008950F931F93DE
:10037000CF93DF93161617060CF079C08C01EC01B1
:10038000660F771F060F171F0E94E100019779F48F
:100390008091A0009091A10001969093A10080937C
:1003A000A00060919E0070919F000E940E010E942B
:1003B000E100029779F48091A0009091A10001974B
:1003C0009093A1008093A00060919E0070919F0087
:1003D0000E940E010E94E100039781F460919E004B
:1003E00070919F006C597F4F70939F0060939E00A7
:1003F0008091A0009091A1000E940E010E94E10056
:10040000049781F460919E0070919F006951710979
:1004100070939F0060939E008091A0009091A10036
:100420000E940E01299139912F3F8FEF380729F44F
:1004300084EF91E00E940A0116C02E3F8FEF38072B
:1004400029F488E592E00E940A010DC0220F331FB3
:10045000220F331FF901EE55FF4F608171818281B8
:1004600093810E947A01C017D10709F08DCFDF91E7
:10047000CF911F910F9108950E94660160919C0099
:1004800070919D0080E690E00E94B6010E94E1001C
:100490000297A1F760919E0070919F006C5E7F4F64
:1004A00070939F0060939E008091A0009091A100A6
:1004B0000E940E01E3CF0E946F020C9457030E942A
:1004C000500358F00E94490340F029F45F3F29F09F
:1004D0000C94400351110C948B030C9446030E941E
:1004E000680368F39923B1F3552391F3951B550BDA
:1004F000BB27AA2762177307840738F09F5F5F4FF7
:10050000220F331F441FAA1FA9F335D00E2E3AF035
:10051000E0E832D091505040E695001CCAF72BD04D
:10052000FE2F29D0660F771F881FBB1F261737079E
:100530004807AB07B0E809F0BB0B802DBF01FF27D0
:1005400093585F4F3AF09E3F510578F00C9440036A
:100550000C948B035F3FE4F3983ED4F38695779534
:100560006795B795F7959F5FC9F7880F911D969589
:10057000879597F90895E1E0660F771F881FBB1FE5
:10058000621773078407BA0720F0621B730B840B92
:10059000BA0BEE1F88F7E09508950E94D402689484
:1005A000B1110C948B0308950E94700388F09F573B
:1005B00098F0B92F9927B751B0F0E1F0660F771F87
:1005C000881F991F1AF0BA95C9F714C0B13091F07D
:1005D0000E948A03B1E008950C948A03672F782F54
:1005E0008827B85F39F0B93FCCF386957795679542
:1005F000B395D9F73EF490958095709561957F4FAE
:100600008F4F9F4F0895E89409C097FB3EF4909553
:100610008095709561957F4F8F4F9F4F9923A9F0DB
:10062000F92F96E9BB279395F6958795779567956A
:10063000B795F111F8CFFAF4BB0F11F460FF1BC0AE
:100640006F5F7F4F8F4F9F4F16C0882311F096E941
:1006500011C0772321F09EE8872F762F05C06623EF
:1006600071F096E8862F70E060E02AF09A95660FA8
:10067000771F881FDAF7880F9695879597F9089561
:1006800097F99F6780E870E060E008959FEF80EC45
:10069000089500240A9416161706180609060895E8
:1006A00000240A9412161306140605060895092E4E
:1006B0000394000C11F4882352F0BB0F40F4BF2BBD
:1006C00011F460FF04C06F5F7F4F8F4F9F4F0895FD
:1006D00057FD9058440F551F59F05F3F71F04795F3
:1006E000880F97FB991F61F09F3F79F087950895D8
:1006F000121613061406551FF2CF4695F1DF08C0F7
:10070000161617061806991FF1CF86957105610513
:1007100008940895E894BB2766277727CB0197F9BB
:1007200008950E94A4030C9457030E94490338F0D3
:100730000E94500320F0952311F00C9440030C9478
:10074000460311240C948B030E94680370F3959F59
:10075000C1F3950F50E0551F629FF001729FBB27B8
:10076000F00DB11D639FAA27F00DB11DAA1F649F54
:100770006627B00DA11D661F829F2227B00DA11D07
:10078000621F739FB00DA11D621F839FA00D611D8D
:10079000221F749F3327A00D611D231F849F600DAE
:1007A000211D822F762F6A2F11249F5750409AF0D7
:1007B000F1F088234AF0EE0FFF1FBB1F661F771F63
:1007C000881F91505040A9F79E3F510580F00C942E
:1007D00040030C948B035F3FE4F3983ED4F386957B
:1007E00077956795B795F795E7959F5FC1F7FE2BCE
:1007F000880F911D9695879597F90895F894FFCFE6
:10080000020002000200FFFF020002000200FFFFE0
:1008100002000400000007000200FFFF03000300C5
:1008200003000300030002000200060006000200AD
:100830000100010002000100FEFF04001E00820012
:020840000200B4
:00000001FF
